{"abi":[{"type":"constructor","inputs":[{"name":"_goodContractAddress","type":"address","internalType":"address"}],"stateMutability":"nonpayable"},{"type":"receive","stateMutability":"payable"},{"type":"function","name":"attack","inputs":[],"outputs":[],"stateMutability":"payable"},{"type":"function","name":"goodContract","inputs":[],"outputs":[{"name":"","type":"address","internalType":"contract GoodContract"}],"stateMutability":"view"}],"bytecode":{"object":"0x6080604052348015600e575f5ffd5b50604051610248380380610248833981016040819052602b91604e565b5f80546001600160a01b0319166001600160a01b03929092169190911790556079565b5f60208284031215605d575f5ffd5b81516001600160a01b03811681146072575f5ffd5b9392505050565b6101c2806100865f395ff3fe60806040526004361061002b575f3560e01c80631a7268d01461009d5780639e5faafc146100d7575f5ffd5b36610099575f546001600160a01b03163115610097575f805460408051633ccfd60b60e01b815290516001600160a01b0390921692633ccfd60b9260048084019382900301818387803b158015610080575f5ffd5b505af1158015610092573d5f5f3e3d5ffd5b505050505b005b5f5ffd5b3480156100a8575f5ffd5b505f546100bb906001600160a01b031681565b6040516001600160a01b03909116815260200160405180910390f35b6100975f80546040805163162c798760e31b815290516001600160a01b039092169263b163cc38923492600480820193929182900301818588803b15801561011d575f5ffd5b505af115801561012f573d5f5f3e3d5ffd5b50505f805460408051633ccfd60b60e01b815290516001600160a01b039092169550633ccfd60b9450600480820194509082900301818387803b158015610174575f5ffd5b505af1158015610186573d5f5f3e3d5ffd5b5050505056fea2646970667358221220045df3728e99dd1580afca7dfb20a07e67aa52acacffee11f3dc6273fb09dcb164736f6c634300081c0033","linkReferences":{}},"methodIdentifiers":{"attack()":"9e5faafc","goodContract()":"1a7268d0"},"id":23}