{"abi":[{"type":"function","name":"addBalance","inputs":[],"outputs":[],"stateMutability":"payable"},{"type":"function","name":"balances","inputs":[{"name":"","type":"address","internalType":"address"}],"outputs":[{"name":"","type":"uint256","internalType":"uint256"}],"stateMutability":"view"},{"type":"function","name":"withdraw","inputs":[],"outputs":[],"stateMutability":"payable"}],"bytecode":{"object":"0x6080604052348015600e575f5ffd5b506101f88061001c5f395ff3fe608060405260043610610033575f3560e01c806327e235e3146100375780633ccfd60b14610074578063b163cc381461007e575b5f5ffd5b348015610042575f5ffd5b50610062610051366004610170565b5f6020819052908152604090205481565b60405190815260200160405180910390f35b61007c610086565b005b61007c61014b565b335f9081526020819052604090205461009d575f5ffd5b335f818152602081905260408082205490519192918381818185875af1925050503d805f81146100e8576040519150601f19603f3d011682016040523d82523d5f602084013e6100ed565b606091505b50509050806101395760405162461bcd60e51b81526020600482015260146024820152732330b4b632b2103a379039b2b7321032ba3432b960611b604482015260640160405180910390fd5b50335f90815260208190526040812055565b335f908152602081905260408120805434929061016990849061019d565b9091555050565b5f60208284031215610180575f5ffd5b81356001600160a01b0381168114610196575f5ffd5b9392505050565b808201808211156101bc57634e487b7160e01b5f52601160045260245ffd5b9291505056fea26469706673582212209dcd4e396b4f6539a809b72f84df9139ab49681200d8dc8fc6ebbbf4cae4184864736f6c634300081c0033","linkReferences":{}},"methodIdentifiers":{"addBalance()":"b163cc38","balances(address)":"27e235e3","withdraw()":"3ccfd60b"},"id":0}