{"abi":[{"type":"function","name":"addBalance","inputs":[],"outputs":[],"stateMutability":"payable"},{"type":"function","name":"balances","inputs":[{"name":"","type":"address","internalType":"address"}],"outputs":[{"name":"","type":"uint256","internalType":"uint256"}],"stateMutability":"view"},{"type":"function","name":"withdraw","inputs":[],"outputs":[],"stateMutability":"nonpayable"}],"bytecode":{"object":"0x6080604052348015600e575f5ffd5b5061028b8061001c5f395ff3fe608060405260043610610033575f3560e01c806327e235e3146100375780633ccfd60b14610074578063b163cc381461008a575b5f5ffd5b348015610042575f5ffd5b50610062610051366004610203565b5f6020819052908152604090205481565b60405190815260200160405180910390f35b34801561007f575f5ffd5b50610088610092565b005b61008861018f565b335f90815260208190526040902054806100f35760405162461bcd60e51b815260206004820152601860248201527f446f20796f752077616e7420746f2074686569662075733f000000000000000060448201526064015b60405180910390fd5b335f818152602081905260408082208290555190919083908381818185875af1925050503d805f8114610141576040519150601f19603f3d011682016040523d82523d5f602084013e610146565b606091505b505090508061018b5760405162461bcd60e51b815260206004820152601160248201527008ae4e4dee440e6cadcc8d2dcce40cae8d607b1b60448201526064016100ea565b5050565b5f34116101de5760405162461bcd60e51b815260206004820152601b60248201527f596f75206861766520746f2073656e6420736f6d65206574686572000000000060448201526064016100ea565b335f90815260208190526040812080543492906101fc908490610230565b9091555050565b5f60208284031215610213575f5ffd5b81356001600160a01b0381168114610229575f5ffd5b9392505050565b8082018082111561024f57634e487b7160e01b5f52601160045260245ffd5b9291505056fea26469706673582212204efe7cede39754d32eafd93423319c5e072eda7ed81b2a016a00a693144b8e5764736f6c634300081c0033","linkReferences":{}},"methodIdentifiers":{"addBalance()":"b163cc38","balances(address)":"27e235e3","withdraw()":"3ccfd60b"},"id":25}